{"Contracts/customer.sol":{"customer":{"abi":[{"inputs":[{"internalType":"string","name":"_username","type":"string"},{"internalType":"string","name":"_customerData","type":"string"}],"name":"addCustomer","outputs":[],"stateMutability":"nonpayable","type":"function"},{"inputs":[{"internalType":"string","name":"","type":"string"}],"name":"customers","outputs":[{"internalType":"string","name":"username","type":"string"},{"internalType":"string","name":"customerData","type":"string"},{"internalType":"bool","name":"kycStatus","type":"bool"},{"internalType":"uint256","name":"Downvotes","type":"uint256"},{"internalType":"uint256","name":"Upvotes","type":"uint256"},{"internalType":"address","name":"Bank","type":"address"}],"stateMutability":"view","type":"function"}],"evm":{"bytecode":{"linkReferences":{},"object":"608060405234801561001057600080fd5b50610ae0806100206000396000f3fe608060405234801561001057600080fd5b50600436106100365760003560e01c80633190abc01461003b578063a82c98d014610057575b600080fd5b610055600480360381019061005091906104e9565b61008c565b005b610071600480360381019061006c9190610561565b610200565b6040516100839695949392919061069e565b60405180910390f35b81600073ffffffffffffffffffffffffffffffffffffffff166000826040516100b59190610749565b908152602001604051809103902060050160009054906101000a900473ffffffffffffffffffffffffffffffffffffffff1673ffffffffffffffffffffffffffffffffffffffff161461013d576040517f08c379a0000000000000000000000000000000000000000000000000000000008152600401610134906107ac565b60405180910390fd5b8260008460405161014e9190610749565b9081526020016040518091039020600001908161016b91906109d8565b508160008460405161017d9190610749565b9081526020016040518091039020600101908161019a91906109d8565b50336000846040516101ac9190610749565b908152602001604051809103902060050160006101000a81548173ffffffffffffffffffffffffffffffffffffffff021916908373ffffffffffffffffffffffffffffffffffffffff160217905550505050565b600081805160208101820180518482526020830160208501208183528095505050505050600091509050806000018054610239906107fb565b80601f0160208091040260200160405190810160405280929190818152602001828054610265906107fb565b80156102b25780601f10610287576101008083540402835291602001916102b2565b820191906000526020600020905b81548152906001019060200180831161029557829003601f168201915b5050505050908060010180546102c7906107fb565b80601f01602080910402602001604051908101604052809291908181526020018280546102f3906107fb565b80156103405780601f1061031557610100808354040283529160200191610340565b820191906000526020600020905b81548152906001019060200180831161032357829003601f168201915b5050505050908060020160009054906101000a900460ff16908060030154908060040154908060050160009054906101000a900473ffffffffffffffffffffffffffffffffffffffff16905086565b6000604051905090565b600080fd5b600080fd5b600080fd5b600080fd5b6000601f19601f8301169050919050565b7f4e487b7100000000000000000000000000000000000000000000000000000000600052604160045260246000fd5b6103f6826103ad565b810181811067ffffffffffffffff82111715610415576104146103be565b5b80604052505050565b600061042861038f565b905061043482826103ed565b919050565b600067ffffffffffffffff821115610454576104536103be565b5b61045d826103ad565b9050602081019050919050565b82818337600083830152505050565b600061048c61048784610439565b61041e565b9050828152602081018484840111156104a8576104a76103a8565b5b6104b384828561046a565b509392505050565b600082601f8301126104d0576104cf6103a3565b5b81356104e0848260208601610479565b91505092915050565b60008060408385031215610500576104ff610399565b5b600083013567ffffffffffffffff81111561051e5761051d61039e565b5b61052a858286016104bb565b925050602083013567ffffffffffffffff81111561054b5761054a61039e565b5b610557858286016104bb565b9150509250929050565b60006020828403121561057757610576610399565b5b600082013567ffffffffffffffff8111156105955761059461039e565b5b6105a1848285016104bb565b91505092915050565b600081519050919050565b600082825260208201905092915050565b60005b838110156105e45780820151818401526020810190506105c9565b60008484015250505050565b60006105fb826105aa565b61060581856105b5565b93506106158185602086016105c6565b61061e816103ad565b840191505092915050565b60008115159050919050565b61063e81610629565b82525050565b6000819050919050565b61065781610644565b82525050565b600073ffffffffffffffffffffffffffffffffffffffff82169050919050565b60006106888261065d565b9050919050565b6106988161067d565b82525050565b600060c08201905081810360008301526106b881896105f0565b905081810360208301526106cc81886105f0565b90506106db6040830187610635565b6106e8606083018661064e565b6106f5608083018561064e565b61070260a083018461068f565b979650505050505050565b600081905092915050565b6000610723826105aa565b61072d818561070d565b935061073d8185602086016105c6565b80840191505092915050565b60006107558284610718565b915081905092915050565b7f437573746f6d657220697320616c72656164792070726573656e740000000000600082015250565b6000610796601b836105b5565b91506107a182610760565b602082019050919050565b600060208201905081810360008301526107c581610789565b9050919050565b7f4e487b7100000000000000000000000000000000000000000000000000000000600052602260045260246000fd5b6000600282049050600182168061081357607f821691505b602082108103610826576108256107cc565b5b50919050565b60008190508160005260206000209050919050565b60006020601f8301049050919050565b600082821b905092915050565b60006008830261088e7fffffffffffffffffffffffffffffffffffffffffffffffffffffffffffffffff82610851565b6108988683610851565b95508019841693508086168417925050509392505050565b6000819050919050565b60006108d56108d06108cb84610644565b6108b0565b610644565b9050919050565b6000819050919050565b6108ef836108ba565b6109036108fb826108dc565b84845461085e565b825550505050565b600090565b61091861090b565b6109238184846108e6565b505050565b5b818110156109475761093c600082610910565b600181019050610929565b5050565b601f82111561098c5761095d8161082c565b61096684610841565b81016020851015610975578190505b61098961098185610841565b830182610928565b50505b505050565b600082821c905092915050565b60006109af60001984600802610991565b1980831691505092915050565b60006109c8838361099e565b9150826002028217905092915050565b6109e1826105aa565b67ffffffffffffffff8111156109fa576109f96103be565b5b610a0482546107fb565b610a0f82828561094b565b600060209050601f831160018114610a425760008415610a30578287015190505b610a3a85826109bc565b865550610aa2565b601f198416610a508661082c565b60005b82811015610a7857848901518255600182019150602085019450602081019050610a53565b86831015610a955784890151610a91601f89168261099e565b8355505b6001600288020188555050505b50505050505056fea2646970667358221220f3b592b431a2fe4c6aa86943109b35e18e5d0dc9e65a0cbf5a24b10ebf29da3564736f6c63430008110033","opcodes":"PUSH1 0x80 PUSH1 0x40 MSTORE CALLVALUE DUP1 ISZERO PUSH2 0x10 JUMPI PUSH1 0x0 DUP1 REVERT JUMPDEST POP PUSH2 0xAE0 DUP1 PUSH2 0x20 PUSH1 0x0 CODECOPY PUSH1 0x0 RETURN INVALID PUSH1 0x80 PUSH1 0x40 MSTORE CALLVALUE DUP1 ISZERO PUSH2 0x10 JUMPI PUSH1 0x0 DUP1 REVERT JUMPDEST POP PUSH1 0x4 CALLDATASIZE LT PUSH2 0x36 JUMPI PUSH1 0x0 CALLDATALOAD PUSH1 0xE0 SHR DUP1 PUSH4 0x3190ABC0 EQ PUSH2 0x3B JUMPI DUP1 PUSH4 0xA82C98D0 EQ PUSH2 0x57 JUMPI JUMPDEST PUSH1 0x0 DUP1 REVERT JUMPDEST PUSH2 0x55 PUSH1 0x4 DUP1 CALLDATASIZE SUB DUP2 ADD SWAP1 PUSH2 0x50 SWAP2 SWAP1 PUSH2 0x4E9 JUMP JUMPDEST PUSH2 0x8C JUMP JUMPDEST STOP JUMPDEST PUSH2 0x71 PUSH1 0x4 DUP1 CALLDATASIZE SUB DUP2 ADD SWAP1 PUSH2 0x6C SWAP2 SWAP1 PUSH2 0x561 JUMP JUMPDEST PUSH2 0x200 JUMP JUMPDEST PUSH1 0x40 MLOAD PUSH2 0x83 SWAP7 SWAP6 SWAP5 SWAP4 SWAP3 SWAP2 SWAP1 PUSH2 0x69E JUMP JUMPDEST PUSH1 0x40 MLOAD DUP1 SWAP2 SUB SWAP1 RETURN JUMPDEST DUP2 PUSH1 0x0 PUSH20 0xFFFFFFFFFFFFFFFFFFFFFFFFFFFFFFFFFFFFFFFF AND PUSH1 0x0 DUP3 PUSH1 0x40 MLOAD PUSH2 0xB5 SWAP2 SWAP1 PUSH2 0x749 JUMP JUMPDEST SWAP1 DUP2 MSTORE PUSH1 0x20 ADD PUSH1 0x40 MLOAD DUP1 SWAP2 SUB SWAP1 KECCAK256 PUSH1 0x5 ADD PUSH1 0x0 SWAP1 SLOAD SWAP1 PUSH2 0x100 EXP SWAP1 DIV PUSH20 0xFFFFFFFFFFFFFFFFFFFFFFFFFFFFFFFFFFFFFFFF AND PUSH20 0xFFFFFFFFFFFFFFFFFFFFFFFFFFFFFFFFFFFFFFFF AND EQ PUSH2 0x13D JUMPI PUSH1 0x40 MLOAD PUSH32 0x8C379A000000000000000000000000000000000000000000000000000000000 DUP2 MSTORE PUSH1 0x4 ADD PUSH2 0x134 SWAP1 PUSH2 0x7AC JUMP JUMPDEST PUSH1 0x40 MLOAD DUP1 SWAP2 SUB SWAP1 REVERT JUMPDEST DUP3 PUSH1 0x0 DUP5 PUSH1 0x40 MLOAD PUSH2 0x14E SWAP2 SWAP1 PUSH2 0x749 JUMP JUMPDEST SWAP1 DUP2 MSTORE PUSH1 0x20 ADD PUSH1 0x40 MLOAD DUP1 SWAP2 SUB SWAP1 KECCAK256 PUSH1 0x0 ADD SWAP1 DUP2 PUSH2 0x16B SWAP2 SWAP1 PUSH2 0x9D8 JUMP JUMPDEST POP DUP2 PUSH1 0x0 DUP5 PUSH1 0x40 MLOAD PUSH2 0x17D SWAP2 SWAP1 PUSH2 0x749 JUMP JUMPDEST SWAP1 DUP2 MSTORE PUSH1 0x20 ADD PUSH1 0x40 MLOAD DUP1 SWAP2 SUB SWAP1 KECCAK256 PUSH1 0x1 ADD SWAP1 DUP2 PUSH2 0x19A SWAP2 SWAP1 PUSH2 0x9D8 JUMP JUMPDEST POP CALLER PUSH1 0x0 DUP5 PUSH1 0x40 MLOAD PUSH2 0x1AC SWAP2 SWAP1 PUSH2 0x749 JUMP JUMPDEST SWAP1 DUP2 MSTORE PUSH1 0x20 ADD PUSH1 0x40 MLOAD DUP1 SWAP2 SUB SWAP1 KECCAK256 PUSH1 0x5 ADD PUSH1 0x0 PUSH2 0x100 EXP DUP2 SLOAD DUP2 PUSH20 0xFFFFFFFFFFFFFFFFFFFFFFFFFFFFFFFFFFFFFFFF MUL NOT AND SWAP1 DUP4 PUSH20 0xFFFFFFFFFFFFFFFFFFFFFFFFFFFFFFFFFFFFFFFF AND MUL OR SWAP1 SSTORE POP POP POP POP JUMP JUMPDEST PUSH1 0x0 DUP2 DUP1 MLOAD PUSH1 0x20 DUP2 ADD DUP3 ADD DUP1 MLOAD DUP5 DUP3 MSTORE PUSH1 0x20 DUP4 ADD PUSH1 0x20 DUP6 ADD KECCAK256 DUP2 DUP4 MSTORE DUP1 SWAP6 POP POP POP POP POP POP PUSH1 0x0 SWAP2 POP SWAP1 POP DUP1 PUSH1 0x0 ADD DUP1 SLOAD PUSH2 0x239 SWAP1 PUSH2 0x7FB JUMP JUMPDEST DUP1 PUSH1 0x1F ADD PUSH1 0x20 DUP1 SWAP2 DIV MUL PUSH1 0x20 ADD PUSH1 0x40 MLOAD SWAP1 DUP2 ADD PUSH1 0x40 MSTORE DUP1 SWAP3 SWAP2 SWAP1 DUP2 DUP2 MSTORE PUSH1 0x20 ADD DUP3 DUP1 SLOAD PUSH2 0x265 SWAP1 PUSH2 0x7FB JUMP JUMPDEST DUP1 ISZERO PUSH2 0x2B2 JUMPI DUP1 PUSH1 0x1F LT PUSH2 0x287 JUMPI PUSH2 0x100 DUP1 DUP4 SLOAD DIV MUL DUP4 MSTORE SWAP2 PUSH1 0x20 ADD SWAP2 PUSH2 0x2B2 JUMP JUMPDEST DUP3 ADD SWAP2 SWAP1 PUSH1 0x0 MSTORE PUSH1 0x20 PUSH1 0x0 KECCAK256 SWAP1 JUMPDEST DUP2 SLOAD DUP2 MSTORE SWAP1 PUSH1 0x1 ADD SWAP1 PUSH1 0x20 ADD DUP1 DUP4 GT PUSH2 0x295 JUMPI DUP3 SWAP1 SUB PUSH1 0x1F AND DUP3 ADD SWAP2 JUMPDEST POP POP POP POP POP SWAP1 DUP1 PUSH1 0x1 ADD DUP1 SLOAD PUSH2 0x2C7 SWAP1 PUSH2 0x7FB JUMP JUMPDEST DUP1 PUSH1 0x1F ADD PUSH1 0x20 DUP1 SWAP2 DIV MUL PUSH1 0x20 ADD PUSH1 0x40 MLOAD SWAP1 DUP2 ADD PUSH1 0x40 MSTORE DUP1 SWAP3 SWAP2 SWAP1 DUP2 DUP2 MSTORE PUSH1 0x20 ADD DUP3 DUP1 SLOAD PUSH2 0x2F3 SWAP1 PUSH2 0x7FB JUMP JUMPDEST DUP1 ISZERO PUSH2 0x340 JUMPI DUP1 PUSH1 0x1F LT PUSH2 0x315 JUMPI PUSH2 0x100 DUP1 DUP4 SLOAD DIV MUL DUP4 MSTORE SWAP2 PUSH1 0x20 ADD SWAP2 PUSH2 0x340 JUMP JUMPDEST DUP3 ADD SWAP2 SWAP1 PUSH1 0x0 MSTORE PUSH1 0x20 PUSH1 0x0 KECCAK256 SWAP1 JUMPDEST DUP2 SLOAD DUP2 MSTORE SWAP1 PUSH1 0x1 ADD SWAP1 PUSH1 0x20 ADD DUP1 DUP4 GT PUSH2 0x323 JUMPI DUP3 SWAP1 SUB PUSH1 0x1F AND DUP3 ADD SWAP2 JUMPDEST POP POP POP POP POP SWAP1 DUP1 PUSH1 0x2 ADD PUSH1 0x0 SWAP1 SLOAD SWAP1 PUSH2 0x100 EXP SWAP1 DIV PUSH1 0xFF AND SWAP1 DUP1 PUSH1 0x3 ADD SLOAD SWAP1 DUP1 PUSH1 0x4 ADD SLOAD SWAP1 DUP1 PUSH1 0x5 ADD PUSH1 0x0 SWAP1 SLOAD SWAP1 PUSH2 0x100 EXP SWAP1 DIV PUSH20 0xFFFFFFFFFFFFFFFFFFFFFFFFFFFFFFFFFFFFFFFF AND SWAP1 POP DUP7 JUMP JUMPDEST PUSH1 0x0 PUSH1 0x40 MLOAD SWAP1 POP SWAP1 JUMP JUMPDEST PUSH1 0x0 DUP1 REVERT JUMPDEST PUSH1 0x0 DUP1 REVERT JUMPDEST PUSH1 0x0 DUP1 REVERT JUMPDEST PUSH1 0x0 DUP1 REVERT JUMPDEST PUSH1 0x0 PUSH1 0x1F NOT PUSH1 0x1F DUP4 ADD AND SWAP1 POP SWAP2 SWAP1 POP JUMP JUMPDEST PUSH32 0x4E487B7100000000000000000000000000000000000000000000000000000000 PUSH1 0x0 MSTORE PUSH1 0x41 PUSH1 0x4 MSTORE PUSH1 0x24 PUSH1 0x0 REVERT JUMPDEST PUSH2 0x3F6 DUP3 PUSH2 0x3AD JUMP JUMPDEST DUP2 ADD DUP2 DUP2 LT PUSH8 0xFFFFFFFFFFFFFFFF DUP3 GT OR ISZERO PUSH2 0x415 JUMPI PUSH2 0x414 PUSH2 0x3BE JUMP JUMPDEST JUMPDEST DUP1 PUSH1 0x40 MSTORE POP POP POP JUMP JUMPDEST PUSH1 0x0 PUSH2 0x428 PUSH2 0x38F JUMP JUMPDEST SWAP1 POP PUSH2 0x434 DUP3 DUP3 PUSH2 0x3ED JUMP JUMPDEST SWAP2 SWAP1 POP JUMP JUMPDEST PUSH1 0x0 PUSH8 0xFFFFFFFFFFFFFFFF DUP3 GT ISZERO PUSH2 0x454 JUMPI PUSH2 0x453 PUSH2 0x3BE JUMP JUMPDEST JUMPDEST PUSH2 0x45D DUP3 PUSH2 0x3AD JUMP JUMPDEST SWAP1 POP PUSH1 0x20 DUP2 ADD SWAP1 POP SWAP2 SWAP1 POP JUMP JUMPDEST DUP3 DUP2 DUP4 CALLDATACOPY PUSH1 0x0 DUP4 DUP4 ADD MSTORE POP POP POP JUMP JUMPDEST PUSH1 0x0 PUSH2 0x48C PUSH2 0x487 DUP5 PUSH2 0x439 JUMP JUMPDEST PUSH2 0x41E JUMP JUMPDEST SWAP1 POP DUP3 DUP2 MSTORE PUSH1 0x20 DUP2 ADD DUP5 DUP5 DUP5 ADD GT ISZERO PUSH2 0x4A8 JUMPI PUSH2 0x4A7 PUSH2 0x3A8 JUMP JUMPDEST JUMPDEST PUSH2 0x4B3 DUP5 DUP3 DUP6 PUSH2 0x46A JUMP JUMPDEST POP SWAP4 SWAP3 POP POP POP JUMP JUMPDEST PUSH1 0x0 DUP3 PUSH1 0x1F DUP4 ADD SLT PUSH2 0x4D0 JUMPI PUSH2 0x4CF PUSH2 0x3A3 JUMP JUMPDEST JUMPDEST DUP2 CALLDATALOAD PUSH2 0x4E0 DUP5 DUP3 PUSH1 0x20 DUP7 ADD PUSH2 0x479 JUMP JUMPDEST SWAP2 POP POP SWAP3 SWAP2 POP POP JUMP JUMPDEST PUSH1 0x0 DUP1 PUSH1 0x40 DUP4 DUP6 SUB SLT ISZERO PUSH2 0x500 JUMPI PUSH2 0x4FF PUSH2 0x399 JUMP JUMPDEST JUMPDEST PUSH1 0x0 DUP4 ADD CALLDATALOAD PUSH8 0xFFFFFFFFFFFFFFFF DUP2 GT ISZERO PUSH2 0x51E JUMPI PUSH2 0x51D PUSH2 0x39E JUMP JUMPDEST JUMPDEST PUSH2 0x52A DUP6 DUP3 DUP7 ADD PUSH2 0x4BB JUMP JUMPDEST SWAP3 POP POP PUSH1 0x20 DUP4 ADD CALLDATALOAD PUSH8 0xFFFFFFFFFFFFFFFF DUP2 GT ISZERO PUSH2 0x54B JUMPI PUSH2 0x54A PUSH2 0x39E JUMP JUMPDEST JUMPDEST PUSH2 0x557 DUP6 DUP3 DUP7 ADD PUSH2 0x4BB JUMP JUMPDEST SWAP2 POP POP SWAP3 POP SWAP3 SWAP1 POP JUMP JUMPDEST PUSH1 0x0 PUSH1 0x20 DUP3 DUP5 SUB SLT ISZERO PUSH2 0x577 JUMPI PUSH2 0x576 PUSH2 0x399 JUMP JUMPDEST JUMPDEST PUSH1 0x0 DUP3 ADD CALLDATALOAD PUSH8 0xFFFFFFFFFFFFFFFF DUP2 GT ISZERO PUSH2 0x595 JUMPI PUSH2 0x594 PUSH2 0x39E JUMP JUMPDEST JUMPDEST PUSH2 0x5A1 DUP5 DUP3 DUP6 ADD PUSH2 0x4BB JUMP JUMPDEST SWAP2 POP POP SWAP3 SWAP2 POP POP JUMP JUMPDEST PUSH1 0x0 DUP2 MLOAD SWAP1 POP SWAP2 SWAP1 POP JUMP JUMPDEST PUSH1 0x0 DUP3 DUP3 MSTORE PUSH1 0x20 DUP3 ADD SWAP1 POP SWAP3 SWAP2 POP POP JUMP JUMPDEST PUSH1 0x0 JUMPDEST DUP4 DUP2 LT ISZERO PUSH2 0x5E4 JUMPI DUP1 DUP3 ADD MLOAD DUP2 DUP5 ADD MSTORE PUSH1 0x20 DUP2 ADD SWAP1 POP PUSH2 0x5C9 JUMP JUMPDEST PUSH1 0x0 DUP5 DUP5 ADD MSTORE POP POP POP POP JUMP JUMPDEST PUSH1 0x0 PUSH2 0x5FB DUP3 PUSH2 0x5AA JUMP JUMPDEST PUSH2 0x605 DUP2 DUP6 PUSH2 0x5B5 JUMP JUMPDEST SWAP4 POP PUSH2 0x615 DUP2 DUP6 PUSH1 0x20 DUP7 ADD PUSH2 0x5C6 JUMP JUMPDEST PUSH2 0x61E DUP2 PUSH2 0x3AD JUMP JUMPDEST DUP5 ADD SWAP2 POP POP SWAP3 SWAP2 POP POP JUMP JUMPDEST PUSH1 0x0 DUP2 ISZERO ISZERO SWAP1 POP SWAP2 SWAP1 POP JUMP JUMPDEST PUSH2 0x63E DUP2 PUSH2 0x629 JUMP JUMPDEST DUP3 MSTORE POP POP JUMP JUMPDEST PUSH1 0x0 DUP2 SWAP1 POP SWAP2 SWAP1 POP JUMP JUMPDEST PUSH2 0x657 DUP2 PUSH2 0x644 JUMP JUMPDEST DUP3 MSTORE POP POP JUMP JUMPDEST PUSH1 0x0 PUSH20 0xFFFFFFFFFFFFFFFFFFFFFFFFFFFFFFFFFFFFFFFF DUP3 AND SWAP1 POP SWAP2 SWAP1 POP JUMP JUMPDEST PUSH1 0x0 PUSH2 0x688 DUP3 PUSH2 0x65D JUMP JUMPDEST SWAP1 POP SWAP2 SWAP1 POP JUMP JUMPDEST PUSH2 0x698 DUP2 PUSH2 0x67D JUMP JUMPDEST DUP3 MSTORE POP POP JUMP JUMPDEST PUSH1 0x0 PUSH1 0xC0 DUP3 ADD SWAP1 POP DUP2 DUP2 SUB PUSH1 0x0 DUP4 ADD MSTORE PUSH2 0x6B8 DUP2 DUP10 PUSH2 0x5F0 JUMP JUMPDEST SWAP1 POP DUP2 DUP2 SUB PUSH1 0x20 DUP4 ADD MSTORE PUSH2 0x6CC DUP2 DUP9 PUSH2 0x5F0 JUMP JUMPDEST SWAP1 POP PUSH2 0x6DB PUSH1 0x40 DUP4 ADD DUP8 PUSH2 0x635 JUMP JUMPDEST PUSH2 0x6E8 PUSH1 0x60 DUP4 ADD DUP7 PUSH2 0x64E JUMP JUMPDEST PUSH2 0x6F5 PUSH1 0x80 DUP4 ADD DUP6 PUSH2 0x64E JUMP JUMPDEST PUSH2 0x702 PUSH1 0xA0 DUP4 ADD DUP5 PUSH2 0x68F JUMP JUMPDEST SWAP8 SWAP7 POP POP POP POP POP POP POP JUMP JUMPDEST PUSH1 0x0 DUP2 SWAP1 POP SWAP3 SWAP2 POP POP JUMP JUMPDEST PUSH1 0x0 PUSH2 0x723 DUP3 PUSH2 0x5AA JUMP JUMPDEST PUSH2 0x72D DUP2 DUP6 PUSH2 0x70D JUMP JUMPDEST SWAP4 POP PUSH2 0x73D DUP2 DUP6 PUSH1 0x20 DUP7 ADD PUSH2 0x5C6 JUMP JUMPDEST DUP1 DUP5 ADD SWAP2 POP POP SWAP3 SWAP2 POP POP JUMP JUMPDEST PUSH1 0x0 PUSH2 0x755 DUP3 DUP5 PUSH2 0x718 JUMP JUMPDEST SWAP2 POP DUP2 SWAP1 POP SWAP3 SWAP2 POP POP JUMP JUMPDEST PUSH32 0x437573746F6D657220697320616C72656164792070726573656E740000000000 PUSH1 0x0 DUP3 ADD MSTORE POP JUMP JUMPDEST PUSH1 0x0 PUSH2 0x796 PUSH1 0x1B DUP4 PUSH2 0x5B5 JUMP JUMPDEST SWAP2 POP PUSH2 0x7A1 DUP3 PUSH2 0x760 JUMP JUMPDEST PUSH1 0x20 DUP3 ADD SWAP1 POP SWAP2 SWAP1 POP JUMP JUMPDEST PUSH1 0x0 PUSH1 0x20 DUP3 ADD SWAP1 POP DUP2 DUP2 SUB PUSH1 0x0 DUP4 ADD MSTORE PUSH2 0x7C5 DUP2 PUSH2 0x789 JUMP JUMPDEST SWAP1 POP SWAP2 SWAP1 POP JUMP JUMPDEST PUSH32 0x4E487B7100000000000000000000000000000000000000000000000000000000 PUSH1 0x0 MSTORE PUSH1 0x22 PUSH1 0x4 MSTORE PUSH1 0x24 PUSH1 0x0 REVERT JUMPDEST PUSH1 0x0 PUSH1 0x2 DUP3 DIV SWAP1 POP PUSH1 0x1 DUP3 AND DUP1 PUSH2 0x813 JUMPI PUSH1 0x7F DUP3 AND SWAP2 POP JUMPDEST PUSH1 0x20 DUP3 LT DUP2 SUB PUSH2 0x826 JUMPI PUSH2 0x825 PUSH2 0x7CC JUMP JUMPDEST JUMPDEST POP SWAP2 SWAP1 POP JUMP JUMPDEST PUSH1 0x0 DUP2 SWAP1 POP DUP2 PUSH1 0x0 MSTORE PUSH1 0x20 PUSH1 0x0 KECCAK256 SWAP1 POP SWAP2 SWAP1 POP JUMP JUMPDEST PUSH1 0x0 PUSH1 0x20 PUSH1 0x1F DUP4 ADD DIV SWAP1 POP SWAP2 SWAP1 POP JUMP JUMPDEST PUSH1 0x0 DUP3 DUP3 SHL SWAP1 POP SWAP3 SWAP2 POP POP JUMP JUMPDEST PUSH1 0x0 PUSH1 0x8 DUP4 MUL PUSH2 0x88E PUSH32 0xFFFFFFFFFFFFFFFFFFFFFFFFFFFFFFFFFFFFFFFFFFFFFFFFFFFFFFFFFFFFFFFF DUP3 PUSH2 0x851 JUMP JUMPDEST PUSH2 0x898 DUP7 DUP4 PUSH2 0x851 JUMP JUMPDEST SWAP6 POP DUP1 NOT DUP5 AND SWAP4 POP DUP1 DUP7 AND DUP5 OR SWAP3 POP POP POP SWAP4 SWAP3 POP POP POP JUMP JUMPDEST PUSH1 0x0 DUP2 SWAP1 POP SWAP2 SWAP1 POP JUMP JUMPDEST PUSH1 0x0 PUSH2 0x8D5 PUSH2 0x8D0 PUSH2 0x8CB DUP5 PUSH2 0x644 JUMP JUMPDEST PUSH2 0x8B0 JUMP JUMPDEST PUSH2 0x644 JUMP JUMPDEST SWAP1 POP SWAP2 SWAP1 POP JUMP JUMPDEST PUSH1 0x0 DUP2 SWAP1 POP SWAP2 SWAP1 POP JUMP JUMPDEST PUSH2 0x8EF DUP4 PUSH2 0x8BA JUMP JUMPDEST PUSH2 0x903 PUSH2 0x8FB DUP3 PUSH2 0x8DC JUMP JUMPDEST DUP5 DUP5 SLOAD PUSH2 0x85E JUMP JUMPDEST DUP3 SSTORE POP POP POP POP JUMP JUMPDEST PUSH1 0x0 SWAP1 JUMP JUMPDEST PUSH2 0x918 PUSH2 0x90B JUMP JUMPDEST PUSH2 0x923 DUP2 DUP5 DUP5 PUSH2 0x8E6 JUMP JUMPDEST POP POP POP JUMP JUMPDEST JUMPDEST DUP2 DUP2 LT ISZERO PUSH2 0x947 JUMPI PUSH2 0x93C PUSH1 0x0 DUP3 PUSH2 0x910 JUMP JUMPDEST PUSH1 0x1 DUP2 ADD SWAP1 POP PUSH2 0x929 JUMP JUMPDEST POP POP JUMP JUMPDEST PUSH1 0x1F DUP3 GT ISZERO PUSH2 0x98C JUMPI PUSH2 0x95D DUP2 PUSH2 0x82C JUMP JUMPDEST PUSH2 0x966 DUP5 PUSH2 0x841 JUMP JUMPDEST DUP2 ADD PUSH1 0x20 DUP6 LT ISZERO PUSH2 0x975 JUMPI DUP2 SWAP1 POP JUMPDEST PUSH2 0x989 PUSH2 0x981 DUP6 PUSH2 0x841 JUMP JUMPDEST DUP4 ADD DUP3 PUSH2 0x928 JUMP JUMPDEST POP POP JUMPDEST POP POP POP JUMP JUMPDEST PUSH1 0x0 DUP3 DUP3 SHR SWAP1 POP SWAP3 SWAP2 POP POP JUMP JUMPDEST PUSH1 0x0 PUSH2 0x9AF PUSH1 0x0 NOT DUP5 PUSH1 0x8 MUL PUSH2 0x991 JUMP JUMPDEST NOT DUP1 DUP4 AND SWAP2 POP POP SWAP3 SWAP2 POP POP JUMP JUMPDEST PUSH1 0x0 PUSH2 0x9C8 DUP4 DUP4 PUSH2 0x99E JUMP JUMPDEST SWAP2 POP DUP3 PUSH1 0x2 MUL DUP3 OR SWAP1 POP SWAP3 SWAP2 POP POP JUMP JUMPDEST PUSH2 0x9E1 DUP3 PUSH2 0x5AA JUMP JUMPDEST PUSH8 0xFFFFFFFFFFFFFFFF DUP2 GT ISZERO PUSH2 0x9FA JUMPI PUSH2 0x9F9 PUSH2 0x3BE JUMP JUMPDEST JUMPDEST PUSH2 0xA04 DUP3 SLOAD PUSH2 0x7FB JUMP JUMPDEST PUSH2 0xA0F DUP3 DUP3 DUP6 PUSH2 0x94B JUMP JUMPDEST PUSH1 0x0 PUSH1 0x20 SWAP1 POP PUSH1 0x1F DUP4 GT PUSH1 0x1 DUP2 EQ PUSH2 0xA42 JUMPI PUSH1 0x0 DUP5 ISZERO PUSH2 0xA30 JUMPI DUP3 DUP8 ADD MLOAD SWAP1 POP JUMPDEST PUSH2 0xA3A DUP6 DUP3 PUSH2 0x9BC JUMP JUMPDEST DUP7 SSTORE POP PUSH2 0xAA2 JUMP JUMPDEST PUSH1 0x1F NOT DUP5 AND PUSH2 0xA50 DUP7 PUSH2 0x82C JUMP JUMPDEST PUSH1 0x0 JUMPDEST DUP3 DUP2 LT ISZERO PUSH2 0xA78 JUMPI DUP5 DUP10 ADD MLOAD DUP3 SSTORE PUSH1 0x1 DUP3 ADD SWAP2 POP PUSH1 0x20 DUP6 ADD SWAP5 POP PUSH1 0x20 DUP2 ADD SWAP1 POP PUSH2 0xA53 JUMP JUMPDEST DUP7 DUP4 LT ISZERO PUSH2 0xA95 JUMPI DUP5 DUP10 ADD MLOAD PUSH2 0xA91 PUSH1 0x1F DUP10 AND DUP3 PUSH2 0x99E JUMP JUMPDEST DUP4 SSTORE POP JUMPDEST PUSH1 0x1 PUSH1 0x2 DUP9 MUL ADD DUP9 SSTORE POP POP POP JUMPDEST POP POP POP POP POP POP JUMP INVALID LOG2 PUSH5 0x6970667358 0x22 SLT KECCAK256 RETURN 0xB5 SWAP3 0xB4 BALANCE LOG2 INVALID 0x4C PUSH11 0xA86943109B35E18E5D0DC9 0xE6 GAS 0xC 0xBF GAS 0x24 0xB1 0xE 0xBF 0x29 0xDA CALLDATALOAD PUSH5 0x736F6C6343 STOP ADDMOD GT STOP CALLER "},"methodIdentifiers":{"addCustomer(string,string)":"3190abc0","customers(string)":"a82c98d0"}}}}}