{
  "_format": "hh-sol-artifact-1",
  "contractName": "customer",
  "sourceName": "Contracts/customer.sol",
  "abi": [
    {
      "inputs": [
        {
          "internalType": "string",
          "name": "_username",
          "type": "string"
        },
        {
          "internalType": "string",
          "name": "_customerData",
          "type": "string"
        }
      ],
      "name": "addCustomer",
      "outputs": [],
      "stateMutability": "nonpayable",
      "type": "function"
    },
    {
      "inputs": [
        {
          "internalType": "string",
          "name": "",
          "type": "string"
        }
      ],
      "name": "customers",
      "outputs": [
        {
          "internalType": "string",
          "name": "username",
          "type": "string"
        },
        {
          "internalType": "string",
          "name": "customerData",
          "type": "string"
        },
        {
          "internalType": "bool",
          "name": "kycStatus",
          "type": "bool"
        },
        {
          "internalType": "uint256",
          "name": "Downvotes",
          "type": "uint256"
        },
        {
          "internalType": "uint256",
          "name": "Upvotes",
          "type": "uint256"
        },
        {
          "internalType": "address",
          "name": "Bank",
          "type": "address"
        }
      ],
      "stateMutability": "view",
      "type": "function"
    },
    {
      "inputs": [
        {
          "internalType": "string",
          "name": "_username",
          "type": "string"
        }
      ],
      "name": "viewCustomer",
      "outputs": [
        {
          "internalType": "string",
          "name": "",
          "type": "string"
        },
        {
          "internalType": "string",
          "name": "",
          "type": "string"
        },
        {
          "internalType": "address",
          "name": "",
          "type": "address"
        }
      ],
      "stateMutability": "view",
      "type": "function"
    }
  ],
  "bytecode": "0x608060405234801561001057600080fd5b50610dc2806100206000396000f3fe608060405234801561001057600080fd5b50600436106100415760003560e01c8063107925bb146100465780633190abc014610078578063a82c98d014610094575b600080fd5b610060600480360381019061005b9190610786565b6100c9565b60405161006f9392919061088f565b60405180910390f35b610092600480360381019061008d91906108d4565b610329565b005b6100ae60048036038101906100a99190610786565b61049d565b6040516100c096959493929190610980565b60405180910390f35b606080600083600073ffffffffffffffffffffffffffffffffffffffff166000826040516100f79190610a2b565b908152602001604051809103902060050160009054906101000a900473ffffffffffffffffffffffffffffffffffffffff1673ffffffffffffffffffffffffffffffffffffffff161461017f576040517f08c379a000000000000000000000000000000000000000000000000000000000815260040161017690610a8e565b60405180910390fd5b60008560405161018f9190610a2b565b90815260200160405180910390206000016000866040516101b09190610a2b565b90815260200160405180910390206001016000876040516101d19190610a2b565b908152602001604051809103902060050160009054906101000a900473ffffffffffffffffffffffffffffffffffffffff1682805461020f90610add565b80601f016020809104026020016040519081016040528092919081815260200182805461023b90610add565b80156102885780601f1061025d57610100808354040283529160200191610288565b820191906000526020600020905b81548152906001019060200180831161026b57829003601f168201915b5050505050925081805461029b90610add565b80601f01602080910402602001604051908101604052809291908181526020018280546102c790610add565b80156103145780601f106102e957610100808354040283529160200191610314565b820191906000526020600020905b8154815290600101906020018083116102f757829003601f168201915b50505050509150935093509350509193909250565b81600073ffffffffffffffffffffffffffffffffffffffff166000826040516103529190610a2b565b908152602001604051809103902060050160009054906101000a900473ffffffffffffffffffffffffffffffffffffffff1673ffffffffffffffffffffffffffffffffffffffff16146103da576040517f08c379a00000000000000000000000000000000000000000000000000000000081526004016103d190610a8e565b60405180910390fd5b826000846040516103eb9190610a2b565b908152602001604051809103902060000190816104089190610cba565b508160008460405161041a9190610a2b565b908152602001604051809103902060010190816104379190610cba565b50336000846040516104499190610a2b565b908152602001604051809103902060050160006101000a81548173ffffffffffffffffffffffffffffffffffffffff021916908373ffffffffffffffffffffffffffffffffffffffff160217905550505050565b6000818051602081018201805184825260208301602085012081835280955050505050506000915090508060000180546104d690610add565b80601f016020809104026020016040519081016040528092919081815260200182805461050290610add565b801561054f5780601f106105245761010080835404028352916020019161054f565b820191906000526020600020905b81548152906001019060200180831161053257829003601f168201915b50505050509080600101805461056490610add565b80601f016020809104026020016040519081016040528092919081815260200182805461059090610add565b80156105dd5780601f106105b2576101008083540402835291602001916105dd565b820191906000526020600020905b8154815290600101906020018083116105c057829003601f168201915b5050505050908060020160009054906101000a900460ff16908060030154908060040154908060050160009054906101000a900473ffffffffffffffffffffffffffffffffffffffff16905086565b6000604051905090565b600080fd5b600080fd5b600080fd5b600080fd5b6000601f19601f8301169050919050565b7f4e487b7100000000000000000000000000000000000000000000000000000000600052604160045260246000fd5b6106938261064a565b810181811067ffffffffffffffff821117156106b2576106b161065b565b5b80604052505050565b60006106c561062c565b90506106d1828261068a565b919050565b600067ffffffffffffffff8211156106f1576106f061065b565b5b6106fa8261064a565b9050602081019050919050565b82818337600083830152505050565b6000610729610724846106d6565b6106bb565b90508281526020810184848401111561074557610744610645565b5b610750848285610707565b509392505050565b600082601f83011261076d5761076c610640565b5b813561077d848260208601610716565b91505092915050565b60006020828403121561079c5761079b610636565b5b600082013567ffffffffffffffff8111156107ba576107b961063b565b5b6107c684828501610758565b91505092915050565b600081519050919050565b600082825260208201905092915050565b60005b838110156108095780820151818401526020810190506107ee565b60008484015250505050565b6000610820826107cf565b61082a81856107da565b935061083a8185602086016107eb565b6108438161064a565b840191505092915050565b600073ffffffffffffffffffffffffffffffffffffffff82169050919050565b60006108798261084e565b9050919050565b6108898161086e565b82525050565b600060608201905081810360008301526108a98186610815565b905081810360208301526108bd8185610815565b90506108cc6040830184610880565b949350505050565b600080604083850312156108eb576108ea610636565b5b600083013567ffffffffffffffff8111156109095761090861063b565b5b61091585828601610758565b925050602083013567ffffffffffffffff8111156109365761093561063b565b5b61094285828601610758565b9150509250929050565b60008115159050919050565b6109618161094c565b82525050565b6000819050919050565b61097a81610967565b82525050565b600060c082019050818103600083015261099a8189610815565b905081810360208301526109ae8188610815565b90506109bd6040830187610958565b6109ca6060830186610971565b6109d76080830185610971565b6109e460a0830184610880565b979650505050505050565b600081905092915050565b6000610a05826107cf565b610a0f81856109ef565b9350610a1f8185602086016107eb565b80840191505092915050565b6000610a3782846109fa565b915081905092915050565b7f437573746f6d657220697320616c72656164792070726573656e740000000000600082015250565b6000610a78601b836107da565b9150610a8382610a42565b602082019050919050565b60006020820190508181036000830152610aa781610a6b565b9050919050565b7f4e487b7100000000000000000000000000000000000000000000000000000000600052602260045260246000fd5b60006002820490506001821680610af557607f821691505b602082108103610b0857610b07610aae565b5b50919050565b60008190508160005260206000209050919050565b60006020601f8301049050919050565b600082821b905092915050565b600060088302610b707fffffffffffffffffffffffffffffffffffffffffffffffffffffffffffffffff82610b33565b610b7a8683610b33565b95508019841693508086168417925050509392505050565b6000819050919050565b6000610bb7610bb2610bad84610967565b610b92565b610967565b9050919050565b6000819050919050565b610bd183610b9c565b610be5610bdd82610bbe565b848454610b40565b825550505050565b600090565b610bfa610bed565b610c05818484610bc8565b505050565b5b81811015610c2957610c1e600082610bf2565b600181019050610c0b565b5050565b601f821115610c6e57610c3f81610b0e565b610c4884610b23565b81016020851015610c57578190505b610c6b610c6385610b23565b830182610c0a565b50505b505050565b600082821c905092915050565b6000610c9160001984600802610c73565b1980831691505092915050565b6000610caa8383610c80565b9150826002028217905092915050565b610cc3826107cf565b67ffffffffffffffff811115610cdc57610cdb61065b565b5b610ce68254610add565b610cf1828285610c2d565b600060209050601f831160018114610d245760008415610d12578287015190505b610d1c8582610c9e565b865550610d84565b601f198416610d3286610b0e565b60005b82811015610d5a57848901518255600182019150602085019450602081019050610d35565b86831015610d775784890151610d73601f891682610c80565b8355505b6001600288020188555050505b50505050505056fea2646970667358221220481690f3716323e8fbb6a6c19b295287e853f0c444bd3ed3a1066398f660285e64736f6c63430008110033",
  "linkReferences": {},
  "deployedLinkReferences": {}
}