{
  "_format": "hh-sol-artifact-1",
  "contractName": "bank",
  "sourceName": "Contracts/bank.sol",
  "abi": [
    {
      "inputs": [
        {
          "internalType": "contract customer",
          "name": "_addressCustomerContract",
          "type": "address"
        }
      ],
      "stateMutability": "nonpayable",
      "type": "constructor"
    },
    {
      "inputs": [
        {
          "internalType": "string",
          "name": "_username",
          "type": "string"
        },
        {
          "internalType": "string",
          "name": "_customerData",
          "type": "string"
        }
      ],
      "name": "addCustomer",
      "outputs": [],
      "stateMutability": "nonpayable",
      "type": "function"
    },
    {
      "inputs": [],
      "name": "customer_ref",
      "outputs": [
        {
          "internalType": "contract customer",
          "name": "",
          "type": "address"
        }
      ],
      "stateMutability": "view",
      "type": "function"
    },
    {
      "inputs": [
        {
          "internalType": "string",
          "name": "",
          "type": "string"
        }
      ],
      "name": "customers",
      "outputs": [
        {
          "internalType": "string",
          "name": "username",
          "type": "string"
        },
        {
          "internalType": "string",
          "name": "customerData",
          "type": "string"
        },
        {
          "internalType": "bool",
          "name": "kycStatus",
          "type": "bool"
        },
        {
          "internalType": "uint256",
          "name": "Downvotes",
          "type": "uint256"
        },
        {
          "internalType": "uint256",
          "name": "Upvotes",
          "type": "uint256"
        },
        {
          "internalType": "address",
          "name": "Bank",
          "type": "address"
        }
      ],
      "stateMutability": "view",
      "type": "function"
    },
    {
      "inputs": [
        {
          "internalType": "string",
          "name": "_username",
          "type": "string"
        }
      ],
      "name": "viewCustomer",
      "outputs": [],
      "stateMutability": "view",
      "type": "function"
    }
  ],
  "bytecode": "0x608060405234801561001057600080fd5b50604051610b03380380610b03833981810160405281019061003291906100ee565b80600260006101000a81548173ffffffffffffffffffffffffffffffffffffffff021916908373ffffffffffffffffffffffffffffffffffffffff1602179055505061011b565b600080fd5b600073ffffffffffffffffffffffffffffffffffffffff82169050919050565b60006100a98261007e565b9050919050565b60006100bb8261009e565b9050919050565b6100cb816100b0565b81146100d657600080fd5b50565b6000815190506100e8816100c2565b92915050565b60006020828403121561010457610103610079565b5b6000610112848285016100d9565b91505092915050565b6109d98061012a6000396000f3fe608060405234801561001057600080fd5b506004361061004c5760003560e01c8063107925bb146100515780633190abc01461006d57806372a0ffaf14610089578063a82c98d0146100a7575b600080fd5b61006b60048036038101906100669190610525565b6100dc565b005b6100876004803603810190610082919061056e565b610183565b005b610091610216565b60405161009e9190610665565b60405180910390f35b6100c160048036038101906100bc9190610525565b61023c565b6040516100d396959493929190610754565b60405180910390f35b600260009054906101000a900473ffffffffffffffffffffffffffffffffffffffff1673ffffffffffffffffffffffffffffffffffffffff1663107925bb826040518263ffffffff1660e01b815260040161013791906107c3565b600060405180830381865afa158015610154573d6000803e3d6000fd5b505050506040513d6000823e3d601f19601f8201168201806040525081019061017d9190610881565b50505050565b600260009054906101000a900473ffffffffffffffffffffffffffffffffffffffff1673ffffffffffffffffffffffffffffffffffffffff16633190abc083836040518363ffffffff1660e01b81526004016101e092919061090c565b600060405180830381600087803b1580156101fa57600080fd5b505af115801561020e573d6000803e3d6000fd5b505050505050565b600260009054906101000a900473ffffffffffffffffffffffffffffffffffffffff1681565b60018180516020810182018051848252602083016020850120818352809550505050505060009150905080600001805461027590610972565b80601f01602080910402602001604051908101604052809291908181526020018280546102a190610972565b80156102ee5780601f106102c3576101008083540402835291602001916102ee565b820191906000526020600020905b8154815290600101906020018083116102d157829003601f168201915b50505050509080600101805461030390610972565b80601f016020809104026020016040519081016040528092919081815260200182805461032f90610972565b801561037c5780601f106103515761010080835404028352916020019161037c565b820191906000526020600020905b81548152906001019060200180831161035f57829003601f168201915b5050505050908060020160009054906101000a900460ff16908060030154908060040154908060050160009054906101000a900473ffffffffffffffffffffffffffffffffffffffff16905086565b6000604051905090565b600080fd5b600080fd5b600080fd5b600080fd5b6000601f19601f8301169050919050565b7f4e487b7100000000000000000000000000000000000000000000000000000000600052604160045260246000fd5b610432826103e9565b810181811067ffffffffffffffff82111715610451576104506103fa565b5b80604052505050565b60006104646103cb565b90506104708282610429565b919050565b600067ffffffffffffffff8211156104905761048f6103fa565b5b610499826103e9565b9050602081019050919050565b82818337600083830152505050565b60006104c86104c384610475565b61045a565b9050828152602081018484840111156104e4576104e36103e4565b5b6104ef8482856104a6565b509392505050565b600082601f83011261050c5761050b6103df565b5b813561051c8482602086016104b5565b91505092915050565b60006020828403121561053b5761053a6103d5565b5b600082013567ffffffffffffffff811115610559576105586103da565b5b610565848285016104f7565b91505092915050565b60008060408385031215610585576105846103d5565b5b600083013567ffffffffffffffff8111156105a3576105a26103da565b5b6105af858286016104f7565b925050602083013567ffffffffffffffff8111156105d0576105cf6103da565b5b6105dc858286016104f7565b9150509250929050565b600073ffffffffffffffffffffffffffffffffffffffff82169050919050565b6000819050919050565b600061062b610626610621846105e6565b610606565b6105e6565b9050919050565b600061063d82610610565b9050919050565b600061064f82610632565b9050919050565b61065f81610644565b82525050565b600060208201905061067a6000830184610656565b92915050565b600081519050919050565b600082825260208201905092915050565b60005b838110156106ba57808201518184015260208101905061069f565b60008484015250505050565b60006106d182610680565b6106db818561068b565b93506106eb81856020860161069c565b6106f4816103e9565b840191505092915050565b60008115159050919050565b610714816106ff565b82525050565b6000819050919050565b61072d8161071a565b82525050565b600061073e826105e6565b9050919050565b61074e81610733565b82525050565b600060c082019050818103600083015261076e81896106c6565b9050818103602083015261078281886106c6565b9050610791604083018761070b565b61079e6060830186610724565b6107ab6080830185610724565b6107b860a0830184610745565b979650505050505050565b600060208201905081810360008301526107dd81846106c6565b905092915050565b60006107f86107f384610475565b61045a565b905082815260208101848484011115610814576108136103e4565b5b61081f84828561069c565b509392505050565b600082601f83011261083c5761083b6103df565b5b815161084c8482602086016107e5565b91505092915050565b61085e81610733565b811461086957600080fd5b50565b60008151905061087b81610855565b92915050565b60008060006060848603121561089a576108996103d5565b5b600084015167ffffffffffffffff8111156108b8576108b76103da565b5b6108c486828701610827565b935050602084015167ffffffffffffffff8111156108e5576108e46103da565b5b6108f186828701610827565b92505060406109028682870161086c565b9150509250925092565b6000604082019050818103600083015261092681856106c6565b9050818103602083015261093a81846106c6565b90509392505050565b7f4e487b7100000000000000000000000000000000000000000000000000000000600052602260045260246000fd5b6000600282049050600182168061098a57607f821691505b60208210810361099d5761099c610943565b5b5091905056fea2646970667358221220eaf576a5ef0baecc1f6f27bbdac6c6f6ee4af457cacf8f3d5480313c1e59cf7964736f6c63430008110033",
  "linkReferences": {},
  "deployedLinkReferences": {}
}